{
  "contractName": "ProofOfExistence",
  "abi": [
    {
      "anonymous": false,
      "inputs": [
        {
          "indexed": false,
          "internalType": "address",
          "name": "from",
          "type": "address"
        },
        {
          "indexed": false,
          "internalType": "string",
          "name": "text",
          "type": "string"
        },
        {
          "indexed": false,
          "internalType": "bytes32",
          "name": "hash",
          "type": "bytes32"
        }
      ],
      "name": "DocumentNotarized",
      "type": "event"
    },
    {
      "anonymous": false,
      "inputs": [
        {
          "indexed": false,
          "internalType": "address",
          "name": "from",
          "type": "address"
        },
        {
          "indexed": false,
          "internalType": "string",
          "name": "text",
          "type": "string"
        },
        {
          "indexed": false,
          "internalType": "string",
          "name": "reason",
          "type": "string"
        }
      ],
      "name": "NotarizationError",
      "type": "event"
    },
    {
      "constant": false,
      "inputs": [
        {
          "internalType": "string",
          "name": "document",
          "type": "string"
        }
      ],
      "name": "notarize",
      "outputs": [],
      "payable": true,
      "stateMutability": "payable",
      "type": "function"
    },
    {
      "constant": true,
      "inputs": [
        {
          "internalType": "string",
          "name": "document",
          "type": "string"
        }
      ],
      "name": "checkDocument",
      "outputs": [
        {
          "internalType": "bool",
          "name": "",
          "type": "bool"
        }
      ],
      "payable": false,
      "stateMutability": "view",
      "type": "function"
    }
  ],
  "bytecode": "0x608060405234801561001057600080fd5b506106ef806100206000396000f3fe6080604052600436106100295760003560e01c806353fb92331461002e5780637183616c1461010e575b600080fd5b34801561003a57600080fd5b506100f46004803603602081101561005157600080fd5b810190808035906020019064010000000081111561006e57600080fd5b82018360208201111561008057600080fd5b803590602001918460018302840111640100000000831117156100a257600080fd5b91908080601f016020809104026020016040519081016040528093929190818152602001838380828437600081840152601f19601f8201169050808301925050505050505091929192905050506101c9565b604051808215151515815260200191505060405180910390f35b6101c76004803603602081101561012457600080fd5b810190808035906020019064010000000081111561014157600080fd5b82018360208201111561015357600080fd5b8035906020019184600183028401116401000000008311171561017557600080fd5b91908080601f016020809104026020016040519081016040528093929190818152602001838380828437600081840152601f19601f8201169050808301925050505050505091929192905050506101fa565b005b60008060006101d7846105b8565b815260200190815260200160002060009054906101000a900460ff169050919050565b600080610206836105b8565b815260200190815260200160002060009054906101000a900460ff161561035f577ff8e882a19bf1379ced2a05706ed608f014f7023453defd2f41469e579537556a3382604051808373ffffffffffffffffffffffffffffffffffffffff1673ffffffffffffffffffffffffffffffffffffffff1681526020018060200180602001838103835284818151815260200191508051906020019080838360005b838110156102c05780820151818401526020810190506102a5565b50505050905090810190601f1680156102ed5780820380516001836020036101000a031916815260200191505b508381038252602d81526020018061068e602d913960400194505050505060405180910390a13373ffffffffffffffffffffffffffffffffffffffff166108fc349081150290604051600060405180830381858888f19350505050158015610359573d6000803e3d6000fd5b506105b5565b670de0b6b3a764000034146104c3577ff8e882a19bf1379ced2a05706ed608f014f7023453defd2f41469e579537556a3382604051808373ffffffffffffffffffffffffffffffffffffffff1673ffffffffffffffffffffffffffffffffffffffff1681526020018060200180602001838103835284818151815260200191508051906020019080838360005b838110156104075780820151818401526020810190506103ec565b50505050905090810190601f1680156104345780820380516001836020036101000a031916815260200191505b508381038252601e8152602001807f496e636f727265637420416d6f756e74206f662045746865722050616964000081525060200194505050505060405180910390a13373ffffffffffffffffffffffffffffffffffffffff166108fc349081150290604051600060405180830381858888f193505050501580156104bd573d6000803e3d6000fd5b506105b5565b6104d46104cf826105b8565b61065f565b7f6e7f17bbd99929a1bd923ebb3bd59b48e4a6e6c81c026d0a0cc4aae50f8054463382610500846105b8565b604051808473ffffffffffffffffffffffffffffffffffffffff1673ffffffffffffffffffffffffffffffffffffffff16815260200180602001838152602001828103825284818151815260200191508051906020019080838360005b8381101561057857808201518184015260208101905061055d565b50505050905090810190601f1680156105a55780820380516001836020036101000a031916815260200191505b5094505050505060405180910390a15b50565b60006002826040518082805190602001908083835b602083106105f057805182526020820191506020810190506020830392506105cd565b6001836020036101000a038019825116818451168082178552505050505050905001915050602060405180830381855afa158015610632573d6000803e3d6000fd5b5050506040513d602081101561064757600080fd5b81019080805190602001909291905050509050919050565b600160008083815260200190815260200160002060006101000a81548160ff0219169083151502179055505056fe54686520646f63756d656e742065786973747320736f2069742063616e6e6f74206265204e6f746172697a6564a265627a7a72315820c3940ff60a6c9bac8996d22b7fa32da0b476e234e5fc871b85a4b6aa9fd9101764736f6c63430005100032",
  "source": "//SPDX-License-Identifier: GPL-3.0\r\npragma solidity ^0.5.0;\r\n\r\ncontract ProofOfExistence {\r\n    mapping (bytes32 => bool) private proofs;\r\n\r\n    //---Events---//\r\n    event DocumentNotarized (address from,string text,bytes32 hash);\r\n    event NotarizationError ( address from, string text, string reason);\r\n\r\n //Store proof of existence in the contract state\r\n    function storeProof(bytes32 proof) private {\r\n        proofs[proof] = true;\r\n    }\r\n\r\n    //Calculate and store proof for a document\r\n    function notarize(string memory document) public payable {\r\n       // require(msg.value == 1 ether);\r\n\r\n        //Check if the string was previously notarized\r\n        if(proofs[proofFor(document)]) {\r\n\r\n            //Emit the event\r\n            emit NotarizationError(msg.sender, document, \"The document exists so it cannot be Notarized\");\r\n           \r\n            //Refund the ether\r\n            msg.sender.transfer(msg.value);\r\n           \r\n            //Exit the function\r\n            return;\r\n        }\r\n\r\n        //Check the value of ether sent to the contract\r\n        if(msg.value != 1 ether){\r\n            //Emit the error event\r\n            emit NotarizationError(msg.sender, document, \"Incorrect Amount of Ether Paid\");\r\n\r\n            //Refund back the ether\r\n            msg.sender.transfer(msg.value);\r\n\r\n            //Exit the Function\r\n            return;\r\n        } \r\n    \r\n        //Store the hash of the string    \r\n        storeProof(proofFor(document));\r\n\r\n        //Emit the success event\r\n        emit DocumentNotarized(msg.sender, document, proofFor(document));\r\n    }\r\n\r\n    //Helper function to get a document's hash sha256\r\n    function proofFor(string memory document) private pure returns (bytes32) {\r\n        return sha256(bytes(document));\r\n    }\r\n\r\n    //Check if a document has been notarized\r\n    function checkDocument(string memory document) public view returns (bool) {\r\n        return proofs[proofFor(document)];\r\n    }\r\n}",
  "sourcePath": "C:/Users/JOZA/Desktop/Solidity Contracts/Document Notarizer/contracts/ProofOfExistence.sol",
  "compiler": {
    "name": "solc",
    "version": "0.5.16+commit.9c3226ce.Emscripten.clang"
  },
  "schemaVersion": "3.3.2",
  "updatedAt": "2021-06-01T14:11:44.947Z",
  "networkType": "ethereum",
  "devdoc": {
    "methods": {}
  },
  "userdoc": {
    "methods": {}
  }
}